{
  "_format": "hh-sol-artifact-1",
  "contractName": "ProfessionalNetworking",
  "sourceName": "contracts/LinkedIn.sol",
  "abi": [
    {
      "inputs": [
        {
          "internalType": "address",
          "name": "_topWeb3NFTAddress",
          "type": "address"
        },
        {
          "internalType": "address",
          "name": "_owner",
          "type": "address"
        }
      ],
      "stateMutability": "nonpayable",
      "type": "constructor"
    },
    {
      "inputs": [
        {
          "internalType": "address",
          "name": "owner",
          "type": "address"
        }
      ],
      "name": "OwnableInvalidOwner",
      "type": "error"
    },
    {
      "inputs": [
        {
          "internalType": "address",
          "name": "account",
          "type": "address"
        }
      ],
      "name": "OwnableUnauthorizedAccount",
      "type": "error"
    },
    {
      "anonymous": false,
      "inputs": [
        {
          "indexed": true,
          "internalType": "address",
          "name": "from",
          "type": "address"
        },
        {
          "indexed": true,
          "internalType": "address",
          "name": "to",
          "type": "address"
        }
      ],
      "name": "FriendRequestAccepted",
      "type": "event"
    },
    {
      "anonymous": false,
      "inputs": [
        {
          "indexed": true,
          "internalType": "address",
          "name": "from",
          "type": "address"
        },
        {
          "indexed": true,
          "internalType": "address",
          "name": "to",
          "type": "address"
        }
      ],
      "name": "FriendRequestSent",
      "type": "event"
    },
    {
      "anonymous": false,
      "inputs": [
        {
          "indexed": true,
          "internalType": "address",
          "name": "previousOwner",
          "type": "address"
        },
        {
          "indexed": true,
          "internalType": "address",
          "name": "newOwner",
          "type": "address"
        }
      ],
      "name": "OwnershipTransferred",
      "type": "event"
    },
    {
      "anonymous": false,
      "inputs": [
        {
          "indexed": true,
          "internalType": "address",
          "name": "author",
          "type": "address"
        },
        {
          "indexed": true,
          "internalType": "uint256",
          "name": "postId",
          "type": "uint256"
        }
      ],
      "name": "PostCreated",
      "type": "event"
    },
    {
      "inputs": [
        {
          "internalType": "address",
          "name": "_from",
          "type": "address"
        }
      ],
      "name": "acceptFriendRequest",
      "outputs": [],
      "stateMutability": "nonpayable",
      "type": "function"
    },
    {
      "inputs": [
        {
          "internalType": "string",
          "name": "_content",
          "type": "string"
        }
      ],
      "name": "createPost",
      "outputs": [],
      "stateMutability": "nonpayable",
      "type": "function"
    },
    {
      "inputs": [
        {
          "internalType": "address",
          "name": "",
          "type": "address"
        },
        {
          "internalType": "address",
          "name": "",
          "type": "address"
        }
      ],
      "name": "friendRequestsReceived",
      "outputs": [
        {
          "internalType": "bool",
          "name": "",
          "type": "bool"
        }
      ],
      "stateMutability": "view",
      "type": "function"
    },
    {
      "inputs": [
        {
          "internalType": "address",
          "name": "",
          "type": "address"
        },
        {
          "internalType": "address",
          "name": "",
          "type": "address"
        }
      ],
      "name": "friendRequestsSent",
      "outputs": [
        {
          "internalType": "bool",
          "name": "",
          "type": "bool"
        }
      ],
      "stateMutability": "view",
      "type": "function"
    },
    {
      "inputs": [],
      "name": "getAllPosts",
      "outputs": [
        {
          "internalType": "address[]",
          "name": "authors",
          "type": "address[]"
        },
        {
          "internalType": "string[]",
          "name": "contents",
          "type": "string[]"
        }
      ],
      "stateMutability": "view",
      "type": "function"
    },
    {
      "inputs": [],
      "name": "getAllRegisteredUsers",
      "outputs": [
        {
          "internalType": "address[]",
          "name": "",
          "type": "address[]"
        },
        {
          "internalType": "string[]",
          "name": "",
          "type": "string[]"
        },
        {
          "internalType": "string[]",
          "name": "",
          "type": "string[]"
        },
        {
          "internalType": "string[]",
          "name": "",
          "type": "string[]"
        },
        {
          "internalType": "string[]",
          "name": "",
          "type": "string[]"
        }
      ],
      "stateMutability": "view",
      "type": "function"
    },
    {
      "inputs": [],
      "name": "getFriendRequestsIn",
      "outputs": [
        {
          "internalType": "address[]",
          "name": "",
          "type": "address[]"
        }
      ],
      "stateMutability": "view",
      "type": "function"
    },
    {
      "inputs": [],
      "name": "getFriendRequestsOut",
      "outputs": [
        {
          "internalType": "address[]",
          "name": "",
          "type": "address[]"
        }
      ],
      "stateMutability": "view",
      "type": "function"
    },
    {
      "inputs": [],
      "name": "getFriends",
      "outputs": [
        {
          "internalType": "address[]",
          "name": "",
          "type": "address[]"
        }
      ],
      "stateMutability": "view",
      "type": "function"
    },
    {
      "inputs": [],
      "name": "getNumPosts",
      "outputs": [
        {
          "internalType": "uint256",
          "name": "",
          "type": "uint256"
        }
      ],
      "stateMutability": "view",
      "type": "function"
    },
    {
      "inputs": [
        {
          "internalType": "uint256",
          "name": "_postId",
          "type": "uint256"
        }
      ],
      "name": "getPost",
      "outputs": [
        {
          "internalType": "address",
          "name": "",
          "type": "address"
        },
        {
          "internalType": "string",
          "name": "",
          "type": "string"
        }
      ],
      "stateMutability": "view",
      "type": "function"
    },
    {
      "inputs": [
        {
          "internalType": "address",
          "name": "_userAddress",
          "type": "address"
        }
      ],
      "name": "getUserData",
      "outputs": [
        {
          "internalType": "string",
          "name": "name",
          "type": "string"
        },
        {
          "internalType": "string",
          "name": "bio",
          "type": "string"
        },
        {
          "internalType": "string",
          "name": "major",
          "type": "string"
        },
        {
          "internalType": "string",
          "name": "profilePicture",
          "type": "string"
        },
        {
          "internalType": "address[]",
          "name": "friends",
          "type": "address[]"
        },
        {
          "internalType": "address[]",
          "name": "incomingFriendRequests",
          "type": "address[]"
        },
        {
          "internalType": "address[]",
          "name": "outgoingFriendRequests",
          "type": "address[]"
        },
        {
          "internalType": "bool",
          "name": "hasTopWeb3NFT",
          "type": "bool"
        }
      ],
      "stateMutability": "view",
      "type": "function"
    },
    {
      "inputs": [
        {
          "internalType": "address",
          "name": "_user",
          "type": "address"
        }
      ],
      "name": "isUserRegistered",
      "outputs": [
        {
          "internalType": "bool",
          "name": "",
          "type": "bool"
        }
      ],
      "stateMutability": "view",
      "type": "function"
    },
    {
      "inputs": [
        {
          "internalType": "address",
          "name": "",
          "type": "address"
        }
      ],
      "name": "numFriends",
      "outputs": [
        {
          "internalType": "uint256",
          "name": "",
          "type": "uint256"
        }
      ],
      "stateMutability": "view",
      "type": "function"
    },
    {
      "inputs": [],
      "name": "owner",
      "outputs": [
        {
          "internalType": "address",
          "name": "",
          "type": "address"
        }
      ],
      "stateMutability": "view",
      "type": "function"
    },
    {
      "inputs": [
        {
          "internalType": "uint256",
          "name": "",
          "type": "uint256"
        }
      ],
      "name": "posts",
      "outputs": [
        {
          "internalType": "address",
          "name": "author",
          "type": "address"
        },
        {
          "internalType": "string",
          "name": "content",
          "type": "string"
        }
      ],
      "stateMutability": "view",
      "type": "function"
    },
    {
      "inputs": [
        {
          "internalType": "address",
          "name": "",
          "type": "address"
        }
      ],
      "name": "profiles",
      "outputs": [
        {
          "internalType": "string",
          "name": "name",
          "type": "string"
        },
        {
          "internalType": "string",
          "name": "bio",
          "type": "string"
        },
        {
          "internalType": "string",
          "name": "major",
          "type": "string"
        },
        {
          "internalType": "string",
          "name": "profilePicture",
          "type": "string"
        },
        {
          "internalType": "bool",
          "name": "hasTopWeb3NFT",
          "type": "bool"
        }
      ],
      "stateMutability": "view",
      "type": "function"
    },
    {
      "inputs": [
        {
          "internalType": "uint256",
          "name": "",
          "type": "uint256"
        }
      ],
      "name": "registeredUsers",
      "outputs": [
        {
          "internalType": "address",
          "name": "",
          "type": "address"
        }
      ],
      "stateMutability": "view",
      "type": "function"
    },
    {
      "inputs": [],
      "name": "renounceOwnership",
      "outputs": [],
      "stateMutability": "nonpayable",
      "type": "function"
    },
    {
      "inputs": [
        {
          "internalType": "address",
          "name": "_to",
          "type": "address"
        }
      ],
      "name": "sendFriendRequest",
      "outputs": [],
      "stateMutability": "nonpayable",
      "type": "function"
    },
    {
      "inputs": [
        {
          "internalType": "string",
          "name": "_name",
          "type": "string"
        },
        {
          "internalType": "string",
          "name": "_bio",
          "type": "string"
        },
        {
          "internalType": "string",
          "name": "_major",
          "type": "string"
        },
        {
          "internalType": "string",
          "name": "_profilePicture",
          "type": "string"
        }
      ],
      "name": "signUp",
      "outputs": [],
      "stateMutability": "nonpayable",
      "type": "function"
    },
    {
      "inputs": [],
      "name": "topWeb3NFT",
      "outputs": [
        {
          "internalType": "contract ERC721",
          "name": "",
          "type": "address"
        }
      ],
      "stateMutability": "view",
      "type": "function"
    },
    {
      "inputs": [
        {
          "internalType": "address",
          "name": "newOwner",
          "type": "address"
        }
      ],
      "name": "transferOwnership",
      "outputs": [],
      "stateMutability": "nonpayable",
      "type": "function"
    }
  ],
  "bytecode": "0x60806040523480156200001157600080fd5b50604051620028b7380380620028b7833981016040819052620000349162000104565b806001600160a01b0381166200006457604051631e4fbdf760e01b81526000600482015260240160405180910390fd5b6200006f8162000097565b5050600780546001600160a01b0319166001600160a01b03929092169190911790556200013c565b600080546001600160a01b038381166001600160a01b0319831681178455604051919092169283917f8be0079c531659141344cd1fd0a4f28419497f9722a3daafe3b4186f6b6457e09190a35050565b80516001600160a01b0381168114620000ff57600080fd5b919050565b600080604083850312156200011857600080fd5b6200012383620000e7565b91506200013360208401620000e7565b90509250929050565b61276b806200014c6000396000f3fe608060405234801561001057600080fd5b506004361061014d5760003560e01c8063715018a6116100c3578063bbe156271161007c578063bbe156271461030f578063c7303c6114610333578063ca7badc514610346578063d87b27fc14610359578063f2fde38b14610361578063ffc9896b1461037457600080fd5b8063715018a61461029d5780637259e0f8146102a5578063837b770a146102d05780638da5cb5b146102e3578063969e1b62146102f4578063a9f56466146102fc57600080fd5b8063397388af11610115578063397388af146101f857806340731c2414610211578063486a99f91461022457806351df125314610252578063589218f11461025a5780636a2551141461026f57600080fd5b80630b1e7f8314610152578063163f75221461017c5780631f8f72701461019f57806330561100146101b457806332eb0a46146101ca575b600080fd5b610165610160366004612061565b61039b565b6040516101739291906120c0565b60405180910390f35b61018f61018a366004612108565b61045d565b6040519015158152602001610173565b6101a76104bc565b604051610173919061216f565b6101bc61052a565b6040516101739291906121dc565b6101ea6101d8366004612108565b60046020526000908152604090205481565b604051908152602001610173565b610200610716565b60405161017395949392919061220a565b61016561021f366004612061565b610e09565b61018f610232366004612277565b600260209081526000928352604080842090915290825290205460ff1681565b6006546101ea565b61026d61026836600461234d565b610f43565b005b61018f61027d366004612277565b600360209081526000928352604080842090915290825290205460ff1681565b61026d611233565b6102b86102b3366004612061565b611247565b6040516001600160a01b039091168152602001610173565b61026d6102de366004612108565b611271565b6000546001600160a01b03166102b8565b6101a7611439565b61026d61030a366004612108565b6114a5565b61032261031d366004612108565b611630565b6040516101739594939291906123fa565b61026d61034136600461245c565b611881565b6007546102b8906001600160a01b031681565b6101a76119c0565b61026d61036f366004612108565b611a2c565b610387610382366004612108565b611a67565b604051610173989796959493929190612491565b600681815481106103ab57600080fd5b6000918252602090912060029091020180546001820180546001600160a01b039092169350906103da90612535565b80601f016020809104026020016040519081016040528092919081815260200182805461040690612535565b80156104535780601f1061042857610100808354040283529160200191610453565b820191906000526020600020905b81548152906001019060200180831161043657829003601f168201915b5050505050905082565b6000805b6005548110156104b357826001600160a01b0316600582815481106104885761048861256f565b6000918252602090912001546001600160a01b0316036104ab5750600192915050565b600101610461565b50600092915050565b3360009081526001602090815260409182902060040180548351818402810184019094528084526060939283018282801561052057602002820191906000526020600020905b81546001600160a01b03168152600190910190602001808311610502575b5050505050905090565b600654606090819060008167ffffffffffffffff81111561054d5761054d6122aa565b604051908082528060200260200182016040528015610576578160200160208202803683370190505b50905060008267ffffffffffffffff811115610594576105946122aa565b6040519080825280602002602001820160405280156105c757816020015b60608152602001906001900390816105b25790505b50905060005b8381101561070b57600681815481106105e8576105e861256f565b600091825260209091206002909102015483516001600160a01b03909116908490839081106106195761061961256f565b60200260200101906001600160a01b031690816001600160a01b0316815250506006818154811061064c5761064c61256f565b9060005260206000209060020201600101805461066890612535565b80601f016020809104026020016040519081016040528092919081815260200182805461069490612535565b80156106e15780601f106106b6576101008083540402835291602001916106e1565b820191906000526020600020905b8154815290600101906020018083116106c457829003601f168201915b50505050508282815181106106f8576106f861256f565b60209081029190910101526001016105cd565b509094909350915050565b6060806060806060600060058054905067ffffffffffffffff81111561073e5761073e6122aa565b604051908082528060200260200182016040528015610767578160200160208202803683370190505b5060055490915060009067ffffffffffffffff811115610789576107896122aa565b6040519080825280602002602001820160405280156107bc57816020015b60608152602001906001900390816107a75790505b5060055490915060009067ffffffffffffffff8111156107de576107de6122aa565b60405190808252806020026020018201604052801561081157816020015b60608152602001906001900390816107fc5790505b5060055490915060009067ffffffffffffffff811115610833576108336122aa565b60405190808252806020026020018201604052801561086657816020015b60608152602001906001900390816108515790505b5060055490915060009067ffffffffffffffff811115610888576108886122aa565b6040519080825280602002602001820160405280156108bb57816020015b60608152602001906001900390816108a65790505b5060408051600580825260c0820190925291925060009190816020015b60608152602001906001900390816108d857505060408051600580825260c0820190925291925060009190602082015b606081526020019060019003908161090857905050905060005b600554811015610df4576000600582815481106109415761094161256f565b9060005260206000200160009054906101000a90046001600160a01b03169050808983815181106109745761097461256f565b6001600160a01b03928316602091820292909201810191909152908216600090815260019091526040902080546109aa90612535565b80601f01602080910402602001604051908101604052809291908181526020018280546109d690612535565b8015610a235780601f106109f857610100808354040283529160200191610a23565b820191906000526020600020905b815481529060010190602001808311610a0657829003601f168201915b5050505050888381518110610a3a57610a3a61256f565b602002602001018190525060016000826001600160a01b03166001600160a01b031681526020019081526020016000206001018054610a7890612535565b80601f0160208091040260200160405190810160405280929190818152602001828054610aa490612535565b8015610af15780601f10610ac657610100808354040283529160200191610af1565b820191906000526020600020905b815481529060010190602001808311610ad457829003601f168201915b5050505050878381518110610b0857610b0861256f565b602002602001018190525060016000826001600160a01b03166001600160a01b031681526020019081526020016000206002018054610b4690612535565b80601f0160208091040260200160405190810160405280929190818152602001828054610b7290612535565b8015610bbf5780601f10610b9457610100808354040283529160200191610bbf565b820191906000526020600020905b815481529060010190602001808311610ba257829003601f168201915b5050505050868381518110610bd657610bd661256f565b602002602001018190525060016000826001600160a01b03166001600160a01b031681526020019081526020016000206003018054610c1490612535565b80601f0160208091040260200160405190810160405280929190818152602001828054610c4090612535565b8015610c8d5780601f10610c6257610100808354040283529160200191610c8d565b820191906000526020600020905b815481529060010190602001808311610c7057829003601f168201915b5050505050858381518110610ca457610ca461256f565b602002602001018190525060016000826001600160a01b03166001600160a01b03168152602001908152602001600020600601805480602002602001604051908101604052809291908181526020018280548015610d2b57602002820191906000526020600020905b81546001600160a01b03168152600190910190602001808311610d0d575b5050505050848381518110610d4257610d4261256f565b602002602001018190525060016000826001600160a01b03166001600160a01b03168152602001908152602001600020600701805480602002602001604051908101604052809291908181526020018280548015610dc957602002820191906000526020600020905b81546001600160a01b03168152600190910190602001808311610dab575b5050505050838381518110610de057610de061256f565b602090810291909101015250600101610922565b50959b949a5092985090965094509092505050565b6006546000906060908310610e575760405162461bcd60e51b815260206004820152600f60248201526e125b9d985b1a59081c1bdcdd081251608a1b60448201526064015b60405180910390fd5b600060068481548110610e6c57610e6c61256f565b60009182526020918290206040805180820190915260029092020180546001600160a01b031682526001810180549293919291840191610eab90612535565b80601f0160208091040260200160405190810160405280929190818152602001828054610ed790612535565b8015610f245780601f10610ef957610100808354040283529160200191610f24565b820191906000526020600020905b815481529060010190602001808311610f0757829003601f168201915b5050505050815250509050806000015181602001519250925050915091565b6000845111610f8d5760405162461bcd60e51b81526020600482015260166024820152754e616d65206d757374206e6f7420626520656d70747960501b6044820152606401610e4e565b6000835111610fd65760405162461bcd60e51b815260206004820152601560248201527442696f206d757374206e6f7420626520656d70747960581b6044820152606401610e4e565b60008151116110315760405162461bcd60e51b815260206004820152602160248201527f50726f66696c652070696374757265206d757374206e6f7420626520656d70746044820152607960f81b6064820152608401610e4e565b604051806101000160405280858152602001848152602001838152602001828152602001600067ffffffffffffffff81111561106f5761106f6122aa565b604051908082528060200260200182016040528015611098578160200160208202803683370190505b5081526000602080830182905260408051838152808301825281850152805183815280830182526060909401939093523382526001905220815181906110de90826125d5565b50602082015160018201906110f390826125d5565b506040820151600282019061110890826125d5565b506060820151600382019061111d90826125d5565b5060808201518051611139916004840191602090910190611fe7565b5060a082015160058201805460ff191691151591909117905560c0820151805161116d916006840191602090910190611fe7565b5060e08201518051611189916007840191602090910190611fe7565b509050506000805b6005548110156111e357336001600160a01b0316600582815481106111b8576111b861256f565b6000918252602090912001546001600160a01b0316036111db57600191506111e3565b600101611191565b508061122c57600580546001810182556000919091527f036b6384b5eca791c62761152d0c79bb0604c104a5fb6f4eb0703f3154bb3db00180546001600160a01b031916331790555b5050505050565b61123b611e66565b6112456000611e93565b565b6005818154811061125757600080fd5b6000918252602090912001546001600160a01b0316905081565b6001600160a01b03811633036112d85760405162461bcd60e51b815260206004820152602660248201527f43616e6e6f742073656e6420667269656e64207265717565737420746f20796f6044820152653ab939b2b63360d11b6064820152608401610e4e565b3360009081526001602052604090206004015460051161130a5760405162461bcd60e51b8152600401610e4e90612695565b3360009081526003602090815260408083206001600160a01b038516845290915290205460ff161561138f5760405162461bcd60e51b815260206004820152602860248201527f467269656e64207265717565737420616c72656164792073656e7420746f20746044820152673434b9903ab9b2b960c11b6064820152608401610e4e565b3360008181526003602090815260408083206001600160a01b038616808552908352818420805460ff19166001908117909155858552808452828520600701805480830182559086528486200180546001600160a01b031990811684179091558286528386206006018054928301815586529385200180549093168517909255519092917f2b4b3b31b7040b3566331c8302dff4a575764757795335d5e9184fd4174c33b291a350565b33600090815260016020908152604091829020600701805483518184028101840190945280845260609392830182828015610520576020028201919060005260206000209081546001600160a01b03168152600190910190602001808311610502575050505050905090565b336000908152600160205260409020600401546005116114d75760405162461bcd60e51b8152600401610e4e90612695565b3360008181526001602081815260408084206004908101805480860182559086528386200180546001600160a01b0389166001600160a01b031991821681179092559086528286208201805495860181558652838620909401805490941686179093559383525290812080549161154d836126ed565b90915550506001600160a01b0381166000908152600460205260408120805491611576836126ed565b90915550503360009081526001602052604090206115979060060182611ee3565b6001600160a01b03811660009081526001602052604090206115bc9060070133611ee3565b60405133906001600160a01b038316907f4738efa342d2c6adcb0441cad1723818b7f5b5d6d846c0005945b21d6642e79d90600090a33360009081526001602052604090206004015460030361162d57336000908152600160208190526040909120600501805460ff191690911790555b50565b60016020526000908152604090208054819061164b90612535565b80601f016020809104026020016040519081016040528092919081815260200182805461167790612535565b80156116c45780601f10611699576101008083540402835291602001916116c4565b820191906000526020600020905b8154815290600101906020018083116116a757829003601f168201915b5050505050908060010180546116d990612535565b80601f016020809104026020016040519081016040528092919081815260200182805461170590612535565b80156117525780601f1061172757610100808354040283529160200191611752565b820191906000526020600020905b81548152906001019060200180831161173557829003601f168201915b50505050509080600201805461176790612535565b80601f016020809104026020016040519081016040528092919081815260200182805461179390612535565b80156117e05780601f106117b5576101008083540402835291602001916117e0565b820191906000526020600020905b8154815290600101906020018083116117c357829003601f168201915b5050505050908060030180546117f590612535565b80601f016020809104026020016040519081016040528092919081815260200182805461182190612535565b801561186e5780601f106118435761010080835404028352916020019161186e565b820191906000526020600020905b81548152906001019060200180831161185157829003601f168201915b5050506005909301549192505060ff1685565b3360009081526001602052604090206005015460ff166118e35760405162461bcd60e51b815260206004820152601e60248201527f5573657220646f6573206e6f74206861766520544f5057454233204e465400006044820152606401610e4e565b60408051808201909152338152602081018281526006805460018101825560009190915282517ff652222313e28459528d920b65115c16c04f3efc82aaedc97be59f3f377c0d3f600290920291820180546001600160a01b0319166001600160a01b0390921691909117815591517ff652222313e28459528d920b65115c16c04f3efc82aaedc97be59f3f377c0d409091019061198090826125d5565b50506006546119929150600190612706565b60405133907f09cf2578b7d56ad392e46d90ca0c5004ffca074e158a150ccc34aac58ce1b8c690600090a350565b33600090815260016020908152604091829020600601805483518184028101840190945280845260609392830182828015610520576020028201919060005260206000209081546001600160a01b03168152600190910190602001808311610502575050505050905090565b611a34611e66565b6001600160a01b038116611a5e57604051631e4fbdf760e01b815260006004820152602401610e4e565b61162d81611e93565b6060806060806060806060600080600160008b6001600160a01b03166001600160a01b0316815260200190815260200160002060405180610100016040529081600082018054611ab690612535565b80601f0160208091040260200160405190810160405280929190818152602001828054611ae290612535565b8015611b2f5780601f10611b0457610100808354040283529160200191611b2f565b820191906000526020600020905b815481529060010190602001808311611b1257829003601f168201915b50505050508152602001600182018054611b4890612535565b80601f0160208091040260200160405190810160405280929190818152602001828054611b7490612535565b8015611bc15780601f10611b9657610100808354040283529160200191611bc1565b820191906000526020600020905b815481529060010190602001808311611ba457829003601f168201915b50505050508152602001600282018054611bda90612535565b80601f0160208091040260200160405190810160405280929190818152602001828054611c0690612535565b8015611c535780601f10611c2857610100808354040283529160200191611c53565b820191906000526020600020905b815481529060010190602001808311611c3657829003601f168201915b50505050508152602001600382018054611c6c90612535565b80601f0160208091040260200160405190810160405280929190818152602001828054611c9890612535565b8015611ce55780601f10611cba57610100808354040283529160200191611ce5565b820191906000526020600020905b815481529060010190602001808311611cc857829003601f168201915b5050505050815260200160048201805480602002602001604051908101604052809291908181526020018280548015611d4757602002820191906000526020600020905b81546001600160a01b03168152600190910190602001808311611d29575b5050509183525050600582015460ff1615156020808301919091526006830180546040805182850281018501825282815294019392830182828015611db557602002820191906000526020600020905b81546001600160a01b03168152600190910190602001808311611d97575b5050505050815260200160078201805480602002602001604051908101604052809291908181526020018280548015611e1757602002820191906000526020600020905b81546001600160a01b03168152600190910190602001808311611df9575b5050505050815250509050806000015181602001518260400151836060015184608001518560c001518660e001518760a001519850985098509850985098509850985050919395975091939597565b6000546001600160a01b031633146112455760405163118cdaa760e01b8152336004820152602401610e4e565b600080546001600160a01b038381166001600160a01b0319831681178455604051919092169283917f8be0079c531659141344cd1fd0a4f28419497f9722a3daafe3b4186f6b6457e09190a35050565b60005b8254811015611fe257816001600160a01b0316838281548110611f0b57611f0b61256f565b6000918252602090912001546001600160a01b031603611fda5782548390611f3590600190612706565b81548110611f4557611f4561256f565b9060005260206000200160009054906101000a90046001600160a01b0316838281548110611f7557611f7561256f565b9060005260206000200160006101000a8154816001600160a01b0302191690836001600160a01b0316021790555082805480611fb357611fb361271f565b600082815260209020810160001990810180546001600160a01b0319169055019055505050565b600101611ee6565b505050565b82805482825590600052602060002090810192821561203c579160200282015b8281111561203c57825182546001600160a01b0319166001600160a01b03909116178255602090920191600190910190612007565b5061204892915061204c565b5090565b5b80821115612048576000815560010161204d565b60006020828403121561207357600080fd5b5035919050565b6000815180845260005b818110156120a057602081850181015186830182015201612084565b506000602082860101526020601f19601f83011685010191505092915050565b6001600160a01b03831681526040602082018190526000906120e49083018461207a565b949350505050565b80356001600160a01b038116811461210357600080fd5b919050565b60006020828403121561211a57600080fd5b612123826120ec565b9392505050565b60008151808452602080850194506020840160005b838110156121645781516001600160a01b03168752958201959082019060010161213f565b509495945050505050565b602081526000612123602083018461212a565b60008282518085526020808601955060208260051b8401016020860160005b848110156121cf57601f198684030189526121bd83835161207a565b988401989250908301906001016121a1565b5090979650505050505050565b6040815260006121ef604083018561212a565b82810360208401526122018185612182565b95945050505050565b60a08152600061221d60a083018861212a565b828103602084015261222f8188612182565b905082810360408401526122438187612182565b905082810360608401526122578186612182565b9050828103608084015261226b8185612182565b98975050505050505050565b6000806040838503121561228a57600080fd5b612293836120ec565b91506122a1602084016120ec565b90509250929050565b634e487b7160e01b600052604160045260246000fd5b600082601f8301126122d157600080fd5b813567ffffffffffffffff808211156122ec576122ec6122aa565b604051601f8301601f19908116603f01168101908282118183101715612314576123146122aa565b8160405283815286602085880101111561232d57600080fd5b836020870160208301376000602085830101528094505050505092915050565b6000806000806080858703121561236357600080fd5b843567ffffffffffffffff8082111561237b57600080fd5b612387888389016122c0565b9550602087013591508082111561239d57600080fd5b6123a9888389016122c0565b945060408701359150808211156123bf57600080fd5b6123cb888389016122c0565b935060608701359150808211156123e157600080fd5b506123ee878288016122c0565b91505092959194509250565b60a08152600061240d60a083018861207a565b828103602084015261241f818861207a565b90508281036040840152612433818761207a565b90508281036060840152612447818661207a565b91505082151560808301529695505050505050565b60006020828403121561246e57600080fd5b813567ffffffffffffffff81111561248557600080fd5b6120e4848285016122c0565b60006101008083526124a58184018c61207a565b905082810360208401526124b9818b61207a565b905082810360408401526124cd818a61207a565b905082810360608401526124e1818961207a565b905082810360808401526124f5818861212a565b905082810360a0840152612509818761212a565b905082810360c084015261251d818661212a565b91505082151560e08301529998505050505050505050565b600181811c9082168061254957607f821691505b60208210810361256957634e487b7160e01b600052602260045260246000fd5b50919050565b634e487b7160e01b600052603260045260246000fd5b601f821115611fe2576000816000526020600020601f850160051c810160208610156125ae5750805b601f850160051c820191505b818110156125cd578281556001016125ba565b505050505050565b815167ffffffffffffffff8111156125ef576125ef6122aa565b612603816125fd8454612535565b84612585565b602080601f83116001811461263857600084156126205750858301515b600019600386901b1c1916600185901b1785556125cd565b600085815260208120601f198616915b8281101561266757888601518255948401946001909101908401612648565b50858210156126855787850151600019600388901b60f8161c191681555b5050505050600190811b01905550565b60208082526022908201527f5573657220616c7265616479206861732035206f72206d6f726520667269656e604082015261647360f01b606082015260800190565b634e487b7160e01b600052601160045260246000fd5b6000600182016126ff576126ff6126d7565b5060010190565b81810381811115612719576127196126d7565b92915050565b634e487b7160e01b600052603160045260246000fdfea2646970667358221220988794b7d785e5fc1e54c4d6518f0c9a06c5880448e5e846d791c97c2879300a64736f6c63430008180033",
  "linkReferences": {},
  "deployedLinkReferences": {}
}