{
  "_format": "hh-sol-artifact-1",
  "contractName": "ProfessionalNetworking",
  "sourceName": "contracts/LinkedIn.sol",
  "abi": [
    {
      "inputs": [
        {
          "internalType": "address",
          "name": "_topWeb3NFTAddress",
          "type": "address"
        },
        {
          "internalType": "address",
          "name": "_owner",
          "type": "address"
        }
      ],
      "stateMutability": "nonpayable",
      "type": "constructor"
    },
    {
      "inputs": [
        {
          "internalType": "address",
          "name": "owner",
          "type": "address"
        }
      ],
      "name": "OwnableInvalidOwner",
      "type": "error"
    },
    {
      "inputs": [
        {
          "internalType": "address",
          "name": "account",
          "type": "address"
        }
      ],
      "name": "OwnableUnauthorizedAccount",
      "type": "error"
    },
    {
      "anonymous": false,
      "inputs": [
        {
          "indexed": true,
          "internalType": "address",
          "name": "from",
          "type": "address"
        },
        {
          "indexed": true,
          "internalType": "address",
          "name": "to",
          "type": "address"
        }
      ],
      "name": "FriendRequestAccepted",
      "type": "event"
    },
    {
      "anonymous": false,
      "inputs": [
        {
          "indexed": true,
          "internalType": "address",
          "name": "from",
          "type": "address"
        },
        {
          "indexed": true,
          "internalType": "address",
          "name": "to",
          "type": "address"
        }
      ],
      "name": "FriendRequestSent",
      "type": "event"
    },
    {
      "anonymous": false,
      "inputs": [
        {
          "indexed": true,
          "internalType": "address",
          "name": "previousOwner",
          "type": "address"
        },
        {
          "indexed": true,
          "internalType": "address",
          "name": "newOwner",
          "type": "address"
        }
      ],
      "name": "OwnershipTransferred",
      "type": "event"
    },
    {
      "anonymous": false,
      "inputs": [
        {
          "indexed": true,
          "internalType": "address",
          "name": "author",
          "type": "address"
        },
        {
          "indexed": true,
          "internalType": "uint256",
          "name": "postId",
          "type": "uint256"
        }
      ],
      "name": "PostCreated",
      "type": "event"
    },
    {
      "inputs": [
        {
          "internalType": "address",
          "name": "_from",
          "type": "address"
        }
      ],
      "name": "acceptFriendRequest",
      "outputs": [],
      "stateMutability": "nonpayable",
      "type": "function"
    },
    {
      "inputs": [
        {
          "internalType": "string",
          "name": "_content",
          "type": "string"
        }
      ],
      "name": "createPost",
      "outputs": [],
      "stateMutability": "nonpayable",
      "type": "function"
    },
    {
      "inputs": [
        {
          "internalType": "address",
          "name": "",
          "type": "address"
        },
        {
          "internalType": "address",
          "name": "",
          "type": "address"
        }
      ],
      "name": "friendRequests",
      "outputs": [
        {
          "internalType": "bool",
          "name": "",
          "type": "bool"
        }
      ],
      "stateMutability": "view",
      "type": "function"
    },
    {
      "inputs": [],
      "name": "getAllRegisteredUsers",
      "outputs": [
        {
          "internalType": "address[]",
          "name": "",
          "type": "address[]"
        },
        {
          "internalType": "string[]",
          "name": "",
          "type": "string[]"
        },
        {
          "internalType": "string[]",
          "name": "",
          "type": "string[]"
        },
        {
          "internalType": "string[]",
          "name": "",
          "type": "string[]"
        }
      ],
      "stateMutability": "view",
      "type": "function"
    },
    {
      "inputs": [],
      "name": "getFriends",
      "outputs": [
        {
          "internalType": "address[]",
          "name": "",
          "type": "address[]"
        }
      ],
      "stateMutability": "view",
      "type": "function"
    },
    {
      "inputs": [],
      "name": "getNumPosts",
      "outputs": [
        {
          "internalType": "uint256",
          "name": "",
          "type": "uint256"
        }
      ],
      "stateMutability": "view",
      "type": "function"
    },
    {
      "inputs": [
        {
          "internalType": "uint256",
          "name": "_postId",
          "type": "uint256"
        }
      ],
      "name": "getPost",
      "outputs": [
        {
          "internalType": "address",
          "name": "",
          "type": "address"
        },
        {
          "internalType": "string",
          "name": "",
          "type": "string"
        }
      ],
      "stateMutability": "view",
      "type": "function"
    },
    {
      "inputs": [
        {
          "internalType": "address",
          "name": "_user",
          "type": "address"
        }
      ],
      "name": "isUserRegistered",
      "outputs": [
        {
          "internalType": "bool",
          "name": "",
          "type": "bool"
        }
      ],
      "stateMutability": "view",
      "type": "function"
    },
    {
      "inputs": [
        {
          "internalType": "address",
          "name": "",
          "type": "address"
        }
      ],
      "name": "numFriends",
      "outputs": [
        {
          "internalType": "uint256",
          "name": "",
          "type": "uint256"
        }
      ],
      "stateMutability": "view",
      "type": "function"
    },
    {
      "inputs": [],
      "name": "owner",
      "outputs": [
        {
          "internalType": "address",
          "name": "",
          "type": "address"
        }
      ],
      "stateMutability": "view",
      "type": "function"
    },
    {
      "inputs": [
        {
          "internalType": "uint256",
          "name": "",
          "type": "uint256"
        }
      ],
      "name": "posts",
      "outputs": [
        {
          "internalType": "address",
          "name": "author",
          "type": "address"
        },
        {
          "internalType": "string",
          "name": "content",
          "type": "string"
        }
      ],
      "stateMutability": "view",
      "type": "function"
    },
    {
      "inputs": [
        {
          "internalType": "address",
          "name": "",
          "type": "address"
        }
      ],
      "name": "profiles",
      "outputs": [
        {
          "internalType": "string",
          "name": "name",
          "type": "string"
        },
        {
          "internalType": "string",
          "name": "bio",
          "type": "string"
        },
        {
          "internalType": "string",
          "name": "profilePicture",
          "type": "string"
        },
        {
          "internalType": "bool",
          "name": "hasTopWeb3NFT",
          "type": "bool"
        }
      ],
      "stateMutability": "view",
      "type": "function"
    },
    {
      "inputs": [
        {
          "internalType": "uint256",
          "name": "",
          "type": "uint256"
        }
      ],
      "name": "registeredUsers",
      "outputs": [
        {
          "internalType": "address",
          "name": "",
          "type": "address"
        }
      ],
      "stateMutability": "view",
      "type": "function"
    },
    {
      "inputs": [],
      "name": "renounceOwnership",
      "outputs": [],
      "stateMutability": "nonpayable",
      "type": "function"
    },
    {
      "inputs": [
        {
          "internalType": "address",
          "name": "_to",
          "type": "address"
        }
      ],
      "name": "sendFriendRequest",
      "outputs": [],
      "stateMutability": "nonpayable",
      "type": "function"
    },
    {
      "inputs": [
        {
          "internalType": "string",
          "name": "_name",
          "type": "string"
        },
        {
          "internalType": "string",
          "name": "_bio",
          "type": "string"
        },
        {
          "internalType": "string",
          "name": "_profilePicture",
          "type": "string"
        }
      ],
      "name": "signUp",
      "outputs": [],
      "stateMutability": "nonpayable",
      "type": "function"
    },
    {
      "inputs": [],
      "name": "topWeb3NFT",
      "outputs": [
        {
          "internalType": "contract ERC721",
          "name": "",
          "type": "address"
        }
      ],
      "stateMutability": "view",
      "type": "function"
    },
    {
      "inputs": [
        {
          "internalType": "address",
          "name": "newOwner",
          "type": "address"
        }
      ],
      "name": "transferOwnership",
      "outputs": [],
      "stateMutability": "nonpayable",
      "type": "function"
    }
  ],
  "bytecode": "0x60806040523480156200001157600080fd5b5060405162001af438038062001af4833981016040819052620000349162000104565b806001600160a01b0381166200006457604051631e4fbdf760e01b81526000600482015260240160405180910390fd5b6200006f8162000097565b5050600680546001600160a01b0319166001600160a01b03929092169190911790556200013c565b600080546001600160a01b038381166001600160a01b0319831681178455604051919092169283917f8be0079c531659141344cd1fd0a4f28419497f9722a3daafe3b4186f6b6457e09190a35050565b80516001600160a01b0381168114620000ff57600080fd5b919050565b600080604083850312156200011857600080fd5b6200012383620000e7565b91506200013360208401620000e7565b90509250929050565b6119a8806200014c6000396000f3fe608060405234801561001057600080fd5b50600436106101165760003560e01c8063837b770a116100a2578063bbe1562711610071578063bbe1562714610278578063c7303c611461029b578063ca7badc5146102ae578063cb2b6f14146102c1578063f2fde38b146102d457600080fd5b8063837b770a146102135780638a1c43ea146102265780638da5cb5b14610254578063a9f564661461026557600080fd5b8063397388af116100e9578063397388af146101ab57806340731c24146101c357806351df1253146101d6578063715018a6146101de5780637259e0f8146101e857600080fd5b80630b1e7f831461011b578063163f7522146101455780631f8f72701461016857806332eb0a461461017d575b600080fd5b61012e6101293660046113d4565b6102e7565b60405161013c929190611433565b60405180910390f35b61015861015336600461147b565b6103a9565b604051901515815260200161013c565b610170610408565b60405161013c91906114e2565b61019d61018b36600461147b565b60036020526000908152604090205481565b60405190815260200161013c565b6101b3610476565b60405161013c949392919061154f565b61012e6101d13660046113d4565b6108a1565b60055461019d565b6101e66109db565b005b6101fb6101f63660046113d4565b6109ef565b6040516001600160a01b03909116815260200161013c565b6101e661022136600461147b565b610a19565b6101586102343660046115a7565b600260209081526000928352604080842090915290825290205460ff1681565b6000546001600160a01b03166101fb565b6101e661027336600461147b565b610b0b565b61028b61028636600461147b565b610d5b565b60405161013c94939291906115da565b6101e66102a93660046116ca565b610f1e565b6006546101fb906001600160a01b031681565b6101e66102cf3660046116ff565b61105d565b6101e66102e236600461147b565b6112a2565b600581815481106102f757600080fd5b6000918252602090912060029091020180546001820180546001600160a01b0390921693509061032690611787565b80601f016020809104026020016040519081016040528092919081815260200182805461035290611787565b801561039f5780601f106103745761010080835404028352916020019161039f565b820191906000526020600020905b81548152906001019060200180831161038257829003601f168201915b5050505050905082565b6000805b6004548110156103ff57826001600160a01b0316600482815481106103d4576103d46117c1565b6000918252602090912001546001600160a01b0316036103f75750600192915050565b6001016103ad565b50600092915050565b3360009081526001602090815260409182902060030180548351818402810184019094528084526060939283018282801561046c57602002820191906000526020600020905b81546001600160a01b0316815260019091019060200180831161044e575b5050505050905090565b606080606080600060048054905067ffffffffffffffff81111561049c5761049c611627565b6040519080825280602002602001820160405280156104c5578160200160208202803683370190505b5060045490915060009067ffffffffffffffff8111156104e7576104e7611627565b60405190808252806020026020018201604052801561051a57816020015b60608152602001906001900390816105055790505b5060045490915060009067ffffffffffffffff81111561053c5761053c611627565b60405190808252806020026020018201604052801561056f57816020015b606081526020019060019003908161055a5790505b5060045490915060009067ffffffffffffffff81111561059157610591611627565b6040519080825280602002602001820160405280156105c457816020015b60608152602001906001900390816105af5790505b50905060005b600454811015610892576000600482815481106105e9576105e96117c1565b9060005260206000200160009054906101000a90046001600160a01b031690508086838151811061061c5761061c6117c1565b6001600160a01b039283166020918202929092018101919091529082166000908152600190915260409020805461065290611787565b80601f016020809104026020016040519081016040528092919081815260200182805461067e90611787565b80156106cb5780601f106106a0576101008083540402835291602001916106cb565b820191906000526020600020905b8154815290600101906020018083116106ae57829003601f168201915b50505050508583815181106106e2576106e26117c1565b602002602001018190525060016000826001600160a01b03166001600160a01b03168152602001908152602001600020600101805461072090611787565b80601f016020809104026020016040519081016040528092919081815260200182805461074c90611787565b80156107995780601f1061076e57610100808354040283529160200191610799565b820191906000526020600020905b81548152906001019060200180831161077c57829003601f168201915b50505050508483815181106107b0576107b06117c1565b602002602001018190525060016000826001600160a01b03166001600160a01b0316815260200190815260200160002060020180546107ee90611787565b80601f016020809104026020016040519081016040528092919081815260200182805461081a90611787565b80156108675780601f1061083c57610100808354040283529160200191610867565b820191906000526020600020905b81548152906001019060200180831161084a57829003601f168201915b505050505083838151811061087e5761087e6117c1565b6020908102919091010152506001016105ca565b50929791965094509092509050565b60055460009060609083106108ef5760405162461bcd60e51b815260206004820152600f60248201526e125b9d985b1a59081c1bdcdd081251608a1b60448201526064015b60405180910390fd5b600060058481548110610904576109046117c1565b60009182526020918290206040805180820190915260029092020180546001600160a01b03168252600181018054929391929184019161094390611787565b80601f016020809104026020016040519081016040528092919081815260200182805461096f90611787565b80156109bc5780601f10610991576101008083540402835291602001916109bc565b820191906000526020600020905b81548152906001019060200180831161099f57829003601f168201915b5050505050815250509050806000015181602001519250925050915091565b6109e36112dd565b6109ed600061130a565b565b600481815481106109ff57600080fd5b6000918252602090912001546001600160a01b0316905081565b6001600160a01b0381163303610a805760405162461bcd60e51b815260206004820152602660248201527f43616e6e6f742073656e6420667269656e64207265717565737420746f20796f6044820152653ab939b2b63360d11b60648201526084016108e6565b33600090815260016020526040902060030154600511610ab25760405162461bcd60e51b81526004016108e6906117d7565b3360008181526002602090815260408083206001600160a01b0386168085529252808320805460ff19166001179055519092917f2b4b3b31b7040b3566331c8302dff4a575764757795335d5e9184fd4174c33b291a350565b6001600160a01b038116600090815260026020908152604080832033845290915290205460ff16610b7e5760405162461bcd60e51b815260206004820181905260248201527f4e6f20667269656e6420726571756573742066726f6d2074686973207573657260448201526064016108e6565b33600090815260016020526040902060030154600511610bb05760405162461bcd60e51b81526004016108e6906117d7565b3360008181526001602081815260408084206003908101805480860182559086528386200180546001600160a01b0389166001600160a01b0319918216811790925590865282862082018054958601815586528386209094018054909416861790935593835252908120805491610c268361182f565b90915550506001600160a01b0381166000908152600360205260408120805491610c4f8361182f565b90915550506001600160a01b0381166000818152600260209081526040808320338085529252808320805460ff19169055519092917f4738efa342d2c6adcb0441cad1723818b7f5b5d6d846c0005945b21d6642e79d91a333600090815260036020819052604090912054148015610cda57503360009081526001602052604090206004015460ff16155b15610d58576040516340c10f1960e01b8152336004820181905260006024830152906340c10f1990604401600060405180830381600087803b158015610d1f57600080fd5b505af1158015610d33573d6000803e3d6000fd5b5050336000908152600160208190526040909120600401805460ff1916909117905550505b50565b600160205260009081526040902080548190610d7690611787565b80601f0160208091040260200160405190810160405280929190818152602001828054610da290611787565b8015610def5780601f10610dc457610100808354040283529160200191610def565b820191906000526020600020905b815481529060010190602001808311610dd257829003601f168201915b505050505090806001018054610e0490611787565b80601f0160208091040260200160405190810160405280929190818152602001828054610e3090611787565b8015610e7d5780601f10610e5257610100808354040283529160200191610e7d565b820191906000526020600020905b815481529060010190602001808311610e6057829003601f168201915b505050505090806002018054610e9290611787565b80601f0160208091040260200160405190810160405280929190818152602001828054610ebe90611787565b8015610f0b5780601f10610ee057610100808354040283529160200191610f0b565b820191906000526020600020905b815481529060010190602001808311610eee57829003601f168201915b5050506004909301549192505060ff1684565b3360009081526001602052604090206004015460ff16610f805760405162461bcd60e51b815260206004820152601e60248201527f5573657220646f6573206e6f74206861766520544f5057454233204e4654000060448201526064016108e6565b60408051808201909152338152602081018281526005805460018101825560009190915282517f036b6384b5eca791c62761152d0c79bb0604c104a5fb6f4eb0703f3154bb3db0600290920291820180546001600160a01b0319166001600160a01b0390921691909117815591517f036b6384b5eca791c62761152d0c79bb0604c104a5fb6f4eb0703f3154bb3db19091019061101d9082611899565b505060055461102f9150600190611959565b60405133907f09cf2578b7d56ad392e46d90ca0c5004ffca074e158a150ccc34aac58ce1b8c690600090a350565b60008351116110a75760405162461bcd60e51b81526020600482015260166024820152754e616d65206d757374206e6f7420626520656d70747960501b60448201526064016108e6565b60008251116110f05760405162461bcd60e51b815260206004820152601560248201527442696f206d757374206e6f7420626520656d70747960581b60448201526064016108e6565b600081511161114b5760405162461bcd60e51b815260206004820152602160248201527f50726f66696c652070696374757265206d757374206e6f7420626520656d70746044820152607960f81b60648201526084016108e6565b6040805160a08101825284815260208082018590528183018490528251600080825281830185526060840191909152608083018190523381526001909152919091208151819061119b9082611899565b50602082015160018201906111b09082611899565b50604082015160028201906111c59082611899565b50606082015180516111e191600384019160209091019061135a565b50608091909101516004909101805460ff19169115159190911790556000805b60045481101561125357336001600160a01b031660048281548110611228576112286117c1565b6000918252602090912001546001600160a01b03160361124b5760019150611253565b600101611201565b508061129c57600480546001810182556000919091527f8a35acfbc15ff81a39ae7d344fd709f28e8600b4aa8c65c6b64bfe7fe36bd19b0180546001600160a01b031916331790555b50505050565b6112aa6112dd565b6001600160a01b0381166112d457604051631e4fbdf760e01b8152600060048201526024016108e6565b610d588161130a565b6000546001600160a01b031633146109ed5760405163118cdaa760e01b81523360048201526024016108e6565b600080546001600160a01b038381166001600160a01b0319831681178455604051919092169283917f8be0079c531659141344cd1fd0a4f28419497f9722a3daafe3b4186f6b6457e09190a35050565b8280548282559060005260206000209081019282156113af579160200282015b828111156113af57825182546001600160a01b0319166001600160a01b0390911617825560209092019160019091019061137a565b506113bb9291506113bf565b5090565b5b808211156113bb57600081556001016113c0565b6000602082840312156113e657600080fd5b5035919050565b6000815180845260005b81811015611413576020818501810151868301820152016113f7565b506000602082860101526020601f19601f83011685010191505092915050565b6001600160a01b0383168152604060208201819052600090611457908301846113ed565b949350505050565b80356001600160a01b038116811461147657600080fd5b919050565b60006020828403121561148d57600080fd5b6114968261145f565b9392505050565b60008151808452602080850194506020840160005b838110156114d75781516001600160a01b0316875295820195908201906001016114b2565b509495945050505050565b602081526000611496602083018461149d565b60008282518085526020808601955060208260051b8401016020860160005b8481101561154257601f198684030189526115308383516113ed565b98840198925090830190600101611514565b5090979650505050505050565b608081526000611562608083018761149d565b828103602084015261157481876114f5565b9050828103604084015261158881866114f5565b9050828103606084015261159c81856114f5565b979650505050505050565b600080604083850312156115ba57600080fd5b6115c38361145f565b91506115d16020840161145f565b90509250929050565b6080815260006115ed60808301876113ed565b82810360208401526115ff81876113ed565b9050828103604084015261161381866113ed565b915050821515606083015295945050505050565b634e487b7160e01b600052604160045260246000fd5b600082601f83011261164e57600080fd5b813567ffffffffffffffff8082111561166957611669611627565b604051601f8301601f19908116603f0116810190828211818310171561169157611691611627565b816040528381528660208588010111156116aa57600080fd5b836020870160208301376000602085830101528094505050505092915050565b6000602082840312156116dc57600080fd5b813567ffffffffffffffff8111156116f357600080fd5b6114578482850161163d565b60008060006060848603121561171457600080fd5b833567ffffffffffffffff8082111561172c57600080fd5b6117388783880161163d565b9450602086013591508082111561174e57600080fd5b61175a8783880161163d565b9350604086013591508082111561177057600080fd5b5061177d8682870161163d565b9150509250925092565b600181811c9082168061179b57607f821691505b6020821081036117bb57634e487b7160e01b600052602260045260246000fd5b50919050565b634e487b7160e01b600052603260045260246000fd5b60208082526022908201527f5573657220616c7265616479206861732035206f72206d6f726520667269656e604082015261647360f01b606082015260800190565b634e487b7160e01b600052601160045260246000fd5b60006001820161184157611841611819565b5060010190565b601f821115611894576000816000526020600020601f850160051c810160208610156118715750805b601f850160051c820191505b818110156118905782815560010161187d565b5050505b505050565b815167ffffffffffffffff8111156118b3576118b3611627565b6118c7816118c18454611787565b84611848565b602080601f8311600181146118fc57600084156118e45750858301515b600019600386901b1c1916600185901b178555611890565b600085815260208120601f198616915b8281101561192b5788860151825594840194600190910190840161190c565b50858210156119495787850151600019600388901b60f8161c191681555b5050505050600190811b01905550565b8181038181111561196c5761196c611819565b9291505056fea264697066735822122036b1beda821fd866517d740abdad0ae30522e4bf0227d9e8838d49ab71a19e6564736f6c63430008180033",
  "linkReferences": {},
  "deployedLinkReferences": {}
}