{
  "_format": "hh-sol-artifact-1",
  "contractName": "ProfessionalNetworking",
  "sourceName": "contracts/LinkedIn.sol",
  "abi": [
    {
      "inputs": [
        {
          "internalType": "address",
          "name": "_topWeb3NFTAddress",
          "type": "address"
        },
        {
          "internalType": "address",
          "name": "_owner",
          "type": "address"
        }
      ],
      "stateMutability": "nonpayable",
      "type": "constructor"
    },
    {
      "inputs": [
        {
          "internalType": "address",
          "name": "owner",
          "type": "address"
        }
      ],
      "name": "OwnableInvalidOwner",
      "type": "error"
    },
    {
      "inputs": [
        {
          "internalType": "address",
          "name": "account",
          "type": "address"
        }
      ],
      "name": "OwnableUnauthorizedAccount",
      "type": "error"
    },
    {
      "anonymous": false,
      "inputs": [
        {
          "indexed": true,
          "internalType": "address",
          "name": "from",
          "type": "address"
        },
        {
          "indexed": true,
          "internalType": "address",
          "name": "to",
          "type": "address"
        }
      ],
      "name": "FriendRequestAccepted",
      "type": "event"
    },
    {
      "anonymous": false,
      "inputs": [
        {
          "indexed": true,
          "internalType": "address",
          "name": "from",
          "type": "address"
        },
        {
          "indexed": true,
          "internalType": "address",
          "name": "to",
          "type": "address"
        }
      ],
      "name": "FriendRequestSent",
      "type": "event"
    },
    {
      "anonymous": false,
      "inputs": [
        {
          "indexed": true,
          "internalType": "address",
          "name": "previousOwner",
          "type": "address"
        },
        {
          "indexed": true,
          "internalType": "address",
          "name": "newOwner",
          "type": "address"
        }
      ],
      "name": "OwnershipTransferred",
      "type": "event"
    },
    {
      "anonymous": false,
      "inputs": [
        {
          "indexed": true,
          "internalType": "address",
          "name": "author",
          "type": "address"
        },
        {
          "indexed": true,
          "internalType": "uint256",
          "name": "postId",
          "type": "uint256"
        }
      ],
      "name": "PostCreated",
      "type": "event"
    },
    {
      "inputs": [
        {
          "internalType": "address",
          "name": "_from",
          "type": "address"
        }
      ],
      "name": "acceptFriendRequest",
      "outputs": [],
      "stateMutability": "nonpayable",
      "type": "function"
    },
    {
      "inputs": [
        {
          "internalType": "string",
          "name": "_content",
          "type": "string"
        }
      ],
      "name": "createPost",
      "outputs": [],
      "stateMutability": "nonpayable",
      "type": "function"
    },
    {
      "inputs": [
        {
          "internalType": "address",
          "name": "",
          "type": "address"
        },
        {
          "internalType": "address",
          "name": "",
          "type": "address"
        }
      ],
      "name": "friendRequestsReceived",
      "outputs": [
        {
          "internalType": "bool",
          "name": "",
          "type": "bool"
        }
      ],
      "stateMutability": "view",
      "type": "function"
    },
    {
      "inputs": [
        {
          "internalType": "address",
          "name": "",
          "type": "address"
        },
        {
          "internalType": "address",
          "name": "",
          "type": "address"
        }
      ],
      "name": "friendRequestsSent",
      "outputs": [
        {
          "internalType": "bool",
          "name": "",
          "type": "bool"
        }
      ],
      "stateMutability": "view",
      "type": "function"
    },
    {
      "inputs": [],
      "name": "getAllRegisteredUsers",
      "outputs": [
        {
          "internalType": "address[]",
          "name": "",
          "type": "address[]"
        },
        {
          "internalType": "string[]",
          "name": "",
          "type": "string[]"
        },
        {
          "internalType": "string[]",
          "name": "",
          "type": "string[]"
        },
        {
          "internalType": "string[]",
          "name": "",
          "type": "string[]"
        },
        {
          "internalType": "string[]",
          "name": "",
          "type": "string[]"
        }
      ],
      "stateMutability": "view",
      "type": "function"
    },
    {
      "inputs": [],
      "name": "getFriendRequestsReceived",
      "outputs": [
        {
          "internalType": "address[]",
          "name": "",
          "type": "address[]"
        }
      ],
      "stateMutability": "view",
      "type": "function"
    },
    {
      "inputs": [],
      "name": "getFriends",
      "outputs": [
        {
          "internalType": "address[]",
          "name": "",
          "type": "address[]"
        }
      ],
      "stateMutability": "view",
      "type": "function"
    },
    {
      "inputs": [],
      "name": "getNumPosts",
      "outputs": [
        {
          "internalType": "uint256",
          "name": "",
          "type": "uint256"
        }
      ],
      "stateMutability": "view",
      "type": "function"
    },
    {
      "inputs": [
        {
          "internalType": "uint256",
          "name": "_postId",
          "type": "uint256"
        }
      ],
      "name": "getPost",
      "outputs": [
        {
          "internalType": "address",
          "name": "",
          "type": "address"
        },
        {
          "internalType": "string",
          "name": "",
          "type": "string"
        }
      ],
      "stateMutability": "view",
      "type": "function"
    },
    {
      "inputs": [
        {
          "internalType": "address",
          "name": "_user",
          "type": "address"
        }
      ],
      "name": "isUserRegistered",
      "outputs": [
        {
          "internalType": "bool",
          "name": "",
          "type": "bool"
        }
      ],
      "stateMutability": "view",
      "type": "function"
    },
    {
      "inputs": [
        {
          "internalType": "address",
          "name": "",
          "type": "address"
        }
      ],
      "name": "numFriends",
      "outputs": [
        {
          "internalType": "uint256",
          "name": "",
          "type": "uint256"
        }
      ],
      "stateMutability": "view",
      "type": "function"
    },
    {
      "inputs": [],
      "name": "owner",
      "outputs": [
        {
          "internalType": "address",
          "name": "",
          "type": "address"
        }
      ],
      "stateMutability": "view",
      "type": "function"
    },
    {
      "inputs": [
        {
          "internalType": "uint256",
          "name": "",
          "type": "uint256"
        }
      ],
      "name": "posts",
      "outputs": [
        {
          "internalType": "address",
          "name": "author",
          "type": "address"
        },
        {
          "internalType": "string",
          "name": "content",
          "type": "string"
        }
      ],
      "stateMutability": "view",
      "type": "function"
    },
    {
      "inputs": [
        {
          "internalType": "address",
          "name": "",
          "type": "address"
        }
      ],
      "name": "profiles",
      "outputs": [
        {
          "internalType": "string",
          "name": "name",
          "type": "string"
        },
        {
          "internalType": "string",
          "name": "bio",
          "type": "string"
        },
        {
          "internalType": "string",
          "name": "major",
          "type": "string"
        },
        {
          "internalType": "string",
          "name": "profilePicture",
          "type": "string"
        },
        {
          "internalType": "bool",
          "name": "hasTopWeb3NFT",
          "type": "bool"
        }
      ],
      "stateMutability": "view",
      "type": "function"
    },
    {
      "inputs": [
        {
          "internalType": "uint256",
          "name": "",
          "type": "uint256"
        }
      ],
      "name": "registeredUsers",
      "outputs": [
        {
          "internalType": "address",
          "name": "",
          "type": "address"
        }
      ],
      "stateMutability": "view",
      "type": "function"
    },
    {
      "inputs": [],
      "name": "renounceOwnership",
      "outputs": [],
      "stateMutability": "nonpayable",
      "type": "function"
    },
    {
      "inputs": [
        {
          "internalType": "address",
          "name": "_to",
          "type": "address"
        }
      ],
      "name": "sendFriendRequest",
      "outputs": [],
      "stateMutability": "nonpayable",
      "type": "function"
    },
    {
      "inputs": [
        {
          "internalType": "string",
          "name": "_name",
          "type": "string"
        },
        {
          "internalType": "string",
          "name": "_bio",
          "type": "string"
        },
        {
          "internalType": "string",
          "name": "_major",
          "type": "string"
        },
        {
          "internalType": "string",
          "name": "_profilePicture",
          "type": "string"
        }
      ],
      "name": "signUp",
      "outputs": [],
      "stateMutability": "nonpayable",
      "type": "function"
    },
    {
      "inputs": [],
      "name": "topWeb3NFT",
      "outputs": [
        {
          "internalType": "contract ERC721",
          "name": "",
          "type": "address"
        }
      ],
      "stateMutability": "view",
      "type": "function"
    },
    {
      "inputs": [
        {
          "internalType": "address",
          "name": "newOwner",
          "type": "address"
        }
      ],
      "name": "transferOwnership",
      "outputs": [],
      "stateMutability": "nonpayable",
      "type": "function"
    }
  ],
  "bytecode": "0x60806040523480156200001157600080fd5b5060405162001fbd38038062001fbd833981016040819052620000349162000104565b806001600160a01b0381166200006457604051631e4fbdf760e01b81526000600482015260240160405180910390fd5b6200006f8162000097565b5050600780546001600160a01b0319166001600160a01b03929092169190911790556200013c565b600080546001600160a01b038381166001600160a01b0319831681178455604051919092169283917f8be0079c531659141344cd1fd0a4f28419497f9722a3daafe3b4186f6b6457e09190a35050565b80516001600160a01b0381168114620000ff57600080fd5b919050565b600080604083850312156200011857600080fd5b6200012383620000e7565b91506200013360208401620000e7565b90509250929050565b611e71806200014c6000396000f3fe608060405234801561001057600080fd5b506004361061012c5760003560e01c80636a255114116100ad578063a9f5646611610071578063a9f56466146102c5578063bbe15627146102d8578063c7303c61146102fc578063ca7badc51461030f578063f2fde38b1461032257600080fd5b80636a25511414610240578063715018a61461026e5780637259e0f814610276578063837b770a146102a15780638da5cb5b146102b457600080fd5b806340731c24116100f457806340731c24146101da578063486a99f9146101ed57806351df12531461021b57806356833b9014610223578063589218f11461022b57600080fd5b80630b1e7f8314610131578063163f75221461015b5780631f8f72701461017e57806332eb0a4614610193578063397388af146101c1575b600080fd5b61014461013f36600461184e565b610335565b6040516101529291906118ad565b60405180910390f35b61016e6101693660046118f5565b6103f7565b6040519015158152602001610152565b610186610456565b604051610152919061195c565b6101b36101a13660046118f5565b60046020526000908152604090205481565b604051908152602001610152565b6101c96104c4565b6040516101529594939291906119c9565b6101446101e836600461184e565b610a17565b61016e6101fb366004611a36565b600260209081526000928352604080842090915290825290205460ff1681565b6006546101b3565b610186610b51565b61023e610239366004611b0c565b610cb7565b005b61016e61024e366004611a36565b600360209081526000928352604080842090915290825290205460ff1681565b61023e610f4f565b61028961028436600461184e565b610f63565b6040516001600160a01b039091168152602001610152565b61023e6102af3660046118f5565b610f8d565b6000546001600160a01b0316610289565b61023e6102d33660046118f5565b611122565b6102eb6102e63660046118f5565b61138c565b604051610152959493929190611bb9565b61023e61030a366004611c1b565b6115dd565b600754610289906001600160a01b031681565b61023e6103303660046118f5565b61171c565b6006818154811061034557600080fd5b6000918252602090912060029091020180546001820180546001600160a01b0390921693509061037490611c50565b80601f01602080910402602001604051908101604052809291908181526020018280546103a090611c50565b80156103ed5780601f106103c2576101008083540402835291602001916103ed565b820191906000526020600020905b8154815290600101906020018083116103d057829003601f168201915b5050505050905082565b6000805b60055481101561044d57826001600160a01b03166005828154811061042257610422611c8a565b6000918252602090912001546001600160a01b0316036104455750600192915050565b6001016103fb565b50600092915050565b336000908152600160209081526040918290206004018054835181840281018401909452808452606093928301828280156104ba57602002820191906000526020600020905b81546001600160a01b0316815260019091019060200180831161049c575b5050505050905090565b6060806060806060600060058054905067ffffffffffffffff8111156104ec576104ec611a69565b604051908082528060200260200182016040528015610515578160200160208202803683370190505b5060055490915060009067ffffffffffffffff81111561053757610537611a69565b60405190808252806020026020018201604052801561056a57816020015b60608152602001906001900390816105555790505b5060055490915060009067ffffffffffffffff81111561058c5761058c611a69565b6040519080825280602002602001820160405280156105bf57816020015b60608152602001906001900390816105aa5790505b5060055490915060009067ffffffffffffffff8111156105e1576105e1611a69565b60405190808252806020026020018201604052801561061457816020015b60608152602001906001900390816105ff5790505b5060055490915060009067ffffffffffffffff81111561063657610636611a69565b60405190808252806020026020018201604052801561066957816020015b60608152602001906001900390816106545790505b50905060005b600554811015610a055760006005828154811061068e5761068e611c8a565b9060005260206000200160009054906101000a90046001600160a01b03169050808783815181106106c1576106c1611c8a565b6001600160a01b03928316602091820292909201810191909152908216600090815260019091526040902080546106f790611c50565b80601f016020809104026020016040519081016040528092919081815260200182805461072390611c50565b80156107705780601f1061074557610100808354040283529160200191610770565b820191906000526020600020905b81548152906001019060200180831161075357829003601f168201915b505050505086838151811061078757610787611c8a565b602002602001018190525060016000826001600160a01b03166001600160a01b0316815260200190815260200160002060010180546107c590611c50565b80601f01602080910402602001604051908101604052809291908181526020018280546107f190611c50565b801561083e5780601f106108135761010080835404028352916020019161083e565b820191906000526020600020905b81548152906001019060200180831161082157829003601f168201915b505050505085838151811061085557610855611c8a565b602002602001018190525060016000826001600160a01b03166001600160a01b03168152602001908152602001600020600201805461089390611c50565b80601f01602080910402602001604051908101604052809291908181526020018280546108bf90611c50565b801561090c5780601f106108e15761010080835404028352916020019161090c565b820191906000526020600020905b8154815290600101906020018083116108ef57829003601f168201915b505050505084838151811061092357610923611c8a565b602002602001018190525060016000826001600160a01b03166001600160a01b03168152602001908152602001600020600301805461096190611c50565b80601f016020809104026020016040519081016040528092919081815260200182805461098d90611c50565b80156109da5780601f106109af576101008083540402835291602001916109da565b820191906000526020600020905b8154815290600101906020018083116109bd57829003601f168201915b50505050508383815181106109f1576109f1611c8a565b60209081029190910101525060010161066f565b50939992985090965094509092509050565b6006546000906060908310610a655760405162461bcd60e51b815260206004820152600f60248201526e125b9d985b1a59081c1bdcdd081251608a1b60448201526064015b60405180910390fd5b600060068481548110610a7a57610a7a611c8a565b60009182526020918290206040805180820190915260029092020180546001600160a01b031682526001810180549293919291840191610ab990611c50565b80601f0160208091040260200160405190810160405280929190818152602001828054610ae590611c50565b8015610b325780601f10610b0757610100808354040283529160200191610b32565b820191906000526020600020905b815481529060010190602001808311610b1557829003601f168201915b5050505050815250509050806000015181602001519250925050915091565b60606000805b600554811015610bc757600060058281548110610b7657610b76611c8a565b60009182526020808320909101543383526002825260408084206001600160a01b039092168085529190925291205490915060ff1615610bbe5782610bba81611cb6565b9350505b50600101610b57565b5060008167ffffffffffffffff811115610be357610be3611a69565b604051908082528060200260200182016040528015610c0c578160200160208202803683370190505b5090506000805b600554811015610cae57600060058281548110610c3257610c32611c8a565b60009182526020808320909101543383526002825260408084206001600160a01b039092168085529190925291205490915060ff1615610ca55780848481518110610c7f57610c7f611c8a565b6001600160a01b039092166020928302919091019091015282610ca181611cb6565b9350505b50600101610c13565b50909392505050565b6000845111610d015760405162461bcd60e51b81526020600482015260166024820152754e616d65206d757374206e6f7420626520656d70747960501b6044820152606401610a5c565b6000835111610d4a5760405162461bcd60e51b815260206004820152601560248201527442696f206d757374206e6f7420626520656d70747960581b6044820152606401610a5c565b6000815111610da55760405162461bcd60e51b815260206004820152602160248201527f50726f66696c652070696374757265206d757374206e6f7420626520656d70746044820152607960f81b6064820152608401610a5c565b6040518060c00160405280858152602001848152602001838152602001828152602001600067ffffffffffffffff811115610de257610de2611a69565b604051908082528060200260200182016040528015610e0b578160200160208202803683370190505b5081526000602091820181905233815260019091526040902081518190610e329082611d20565b5060208201516001820190610e479082611d20565b5060408201516002820190610e5c9082611d20565b5060608201516003820190610e719082611d20565b5060808201518051610e8d9160048401916020909101906117d4565b5060a091909101516005909101805460ff19169115159190911790556000805b600554811015610eff57336001600160a01b031660058281548110610ed457610ed4611c8a565b6000918252602090912001546001600160a01b031603610ef75760019150610eff565b600101610ead565b5080610f4857600580546001810182556000919091527f036b6384b5eca791c62761152d0c79bb0604c104a5fb6f4eb0703f3154bb3db00180546001600160a01b031916331790555b5050505050565b610f57611757565b610f616000611784565b565b60058181548110610f7357600080fd5b6000918252602090912001546001600160a01b0316905081565b6001600160a01b0381163303610ff45760405162461bcd60e51b815260206004820152602660248201527f43616e6e6f742073656e6420667269656e64207265717565737420746f20796f6044820152653ab939b2b63360d11b6064820152608401610a5c565b336000908152600160205260409020600401546005116110265760405162461bcd60e51b8152600401610a5c90611de0565b3360009081526003602090815260408083206001600160a01b038516845290915290205460ff16156110ab5760405162461bcd60e51b815260206004820152602860248201527f467269656e64207265717565737420616c72656164792073656e7420746f20746044820152673434b9903ab9b2b960c11b6064820152608401610a5c565b3360008181526003602090815260408083206001600160a01b0386168085529083528184208054600160ff19918216811790925560028552838620878752909452828520805490941617909255519092917f2b4b3b31b7040b3566331c8302dff4a575764757795335d5e9184fd4174c33b291a350565b3360009081526002602090815260408083206001600160a01b038516845290915290205460ff166111955760405162461bcd60e51b815260206004820181905260248201527f4e6f20667269656e6420726571756573742066726f6d207468697320757365726044820152606401610a5c565b336000908152600160205260409020600401546005116111c75760405162461bcd60e51b8152600401610a5c90611de0565b3360008181526001602081815260408084206004908101805480860182559086528386200180546001600160a01b0389166001600160a01b031991821681179092559086528286208201805495860181558652838620909401805490941686179093559383525290812080549161123d83611cb6565b90915550506001600160a01b038116600090815260046020526040812080549161126683611cb6565b90915550503360008181526002602090815260408083206001600160a01b038616808552908352818420805460ff199081169091556003845282852086865290935281842080549093169092555190917f4738efa342d2c6adcb0441cad1723818b7f5b5d6d846c0005945b21d6642e79d91a333600090815260046020526040902054600314801561130b57503360009081526001602052604090206005015460ff16155b15611389576040516340c10f1960e01b8152336004820181905260006024830152906340c10f1990604401600060405180830381600087803b15801561135057600080fd5b505af1158015611364573d6000803e3d6000fd5b5050336000908152600160208190526040909120600501805460ff1916909117905550505b50565b6001602052600090815260409020805481906113a790611c50565b80601f01602080910402602001604051908101604052809291908181526020018280546113d390611c50565b80156114205780601f106113f557610100808354040283529160200191611420565b820191906000526020600020905b81548152906001019060200180831161140357829003601f168201915b50505050509080600101805461143590611c50565b80601f016020809104026020016040519081016040528092919081815260200182805461146190611c50565b80156114ae5780601f10611483576101008083540402835291602001916114ae565b820191906000526020600020905b81548152906001019060200180831161149157829003601f168201915b5050505050908060020180546114c390611c50565b80601f01602080910402602001604051908101604052809291908181526020018280546114ef90611c50565b801561153c5780601f106115115761010080835404028352916020019161153c565b820191906000526020600020905b81548152906001019060200180831161151f57829003601f168201915b50505050509080600301805461155190611c50565b80601f016020809104026020016040519081016040528092919081815260200182805461157d90611c50565b80156115ca5780601f1061159f576101008083540402835291602001916115ca565b820191906000526020600020905b8154815290600101906020018083116115ad57829003601f168201915b5050506005909301549192505060ff1685565b3360009081526001602052604090206005015460ff1661163f5760405162461bcd60e51b815260206004820152601e60248201527f5573657220646f6573206e6f74206861766520544f5057454233204e465400006044820152606401610a5c565b60408051808201909152338152602081018281526006805460018101825560009190915282517ff652222313e28459528d920b65115c16c04f3efc82aaedc97be59f3f377c0d3f600290920291820180546001600160a01b0319166001600160a01b0390921691909117815591517ff652222313e28459528d920b65115c16c04f3efc82aaedc97be59f3f377c0d40909101906116dc9082611d20565b50506006546116ee9150600190611e22565b60405133907f09cf2578b7d56ad392e46d90ca0c5004ffca074e158a150ccc34aac58ce1b8c690600090a350565b611724611757565b6001600160a01b03811661174e57604051631e4fbdf760e01b815260006004820152602401610a5c565b61138981611784565b6000546001600160a01b03163314610f615760405163118cdaa760e01b8152336004820152602401610a5c565b600080546001600160a01b038381166001600160a01b0319831681178455604051919092169283917f8be0079c531659141344cd1fd0a4f28419497f9722a3daafe3b4186f6b6457e09190a35050565b828054828255906000526020600020908101928215611829579160200282015b8281111561182957825182546001600160a01b0319166001600160a01b039091161782556020909201916001909101906117f4565b50611835929150611839565b5090565b5b80821115611835576000815560010161183a565b60006020828403121561186057600080fd5b5035919050565b6000815180845260005b8181101561188d57602081850181015186830182015201611871565b506000602082860101526020601f19601f83011685010191505092915050565b6001600160a01b03831681526040602082018190526000906118d190830184611867565b949350505050565b80356001600160a01b03811681146118f057600080fd5b919050565b60006020828403121561190757600080fd5b611910826118d9565b9392505050565b60008151808452602080850194506020840160005b838110156119515781516001600160a01b03168752958201959082019060010161192c565b509495945050505050565b6020815260006119106020830184611917565b60008282518085526020808601955060208260051b8401016020860160005b848110156119bc57601f198684030189526119aa838351611867565b9884019892509083019060010161198e565b5090979650505050505050565b60a0815260006119dc60a0830188611917565b82810360208401526119ee818861196f565b90508281036040840152611a02818761196f565b90508281036060840152611a16818661196f565b90508281036080840152611a2a818561196f565b98975050505050505050565b60008060408385031215611a4957600080fd5b611a52836118d9565b9150611a60602084016118d9565b90509250929050565b634e487b7160e01b600052604160045260246000fd5b600082601f830112611a9057600080fd5b813567ffffffffffffffff80821115611aab57611aab611a69565b604051601f8301601f19908116603f01168101908282118183101715611ad357611ad3611a69565b81604052838152866020858801011115611aec57600080fd5b836020870160208301376000602085830101528094505050505092915050565b60008060008060808587031215611b2257600080fd5b843567ffffffffffffffff80821115611b3a57600080fd5b611b4688838901611a7f565b95506020870135915080821115611b5c57600080fd5b611b6888838901611a7f565b94506040870135915080821115611b7e57600080fd5b611b8a88838901611a7f565b93506060870135915080821115611ba057600080fd5b50611bad87828801611a7f565b91505092959194509250565b60a081526000611bcc60a0830188611867565b8281036020840152611bde8188611867565b90508281036040840152611bf28187611867565b90508281036060840152611c068186611867565b91505082151560808301529695505050505050565b600060208284031215611c2d57600080fd5b813567ffffffffffffffff811115611c4457600080fd5b6118d184828501611a7f565b600181811c90821680611c6457607f821691505b602082108103611c8457634e487b7160e01b600052602260045260246000fd5b50919050565b634e487b7160e01b600052603260045260246000fd5b634e487b7160e01b600052601160045260246000fd5b600060018201611cc857611cc8611ca0565b5060010190565b601f821115611d1b576000816000526020600020601f850160051c81016020861015611cf85750805b601f850160051c820191505b81811015611d1757828155600101611d04565b5050505b505050565b815167ffffffffffffffff811115611d3a57611d3a611a69565b611d4e81611d488454611c50565b84611ccf565b602080601f831160018114611d835760008415611d6b5750858301515b600019600386901b1c1916600185901b178555611d17565b600085815260208120601f198616915b82811015611db257888601518255948401946001909101908401611d93565b5085821015611dd05787850151600019600388901b60f8161c191681555b5050505050600190811b01905550565b60208082526022908201527f5573657220616c7265616479206861732035206f72206d6f726520667269656e604082015261647360f01b606082015260800190565b81810381811115611e3557611e35611ca0565b9291505056fea2646970667358221220e7ac53efaa4e671fa514e15d4e36cc21d1c1050fe83cdcd5beef3c55075880b864736f6c63430008180033",
  "linkReferences": {},
  "deployedLinkReferences": {}
}